{
  "address": "0xDD8fb91eBdD08993218e7428Db58948e438a7aE4",
  "abi": [
    {
      "inputs": [
        {
          "internalType": "address",
          "name": "api3Token_",
          "type": "address"
        }
      ],
      "stateMutability": "nonpayable",
      "type": "constructor"
    },
    {
      "anonymous": false,
      "inputs": [
        {
          "indexed": true,
          "internalType": "address",
          "name": "beneficiary",
          "type": "address"
        },
        {
          "indexed": false,
          "internalType": "uint32",
          "name": "startTimestamp",
          "type": "uint32"
        },
        {
          "indexed": false,
          "internalType": "uint32",
          "name": "endTimestamp",
          "type": "uint32"
        },
        {
          "indexed": false,
          "internalType": "uint192",
          "name": "amount",
          "type": "uint192"
        }
      ],
      "name": "DeployedIrrevocableVesting",
      "type": "event"
    },
    {
      "inputs": [],
      "name": "api3Token",
      "outputs": [
        {
          "internalType": "address",
          "name": "",
          "type": "address"
        }
      ],
      "stateMutability": "view",
      "type": "function"
    },
    {
      "inputs": [
        {
          "internalType": "address",
          "name": "beneficiary",
          "type": "address"
        },
        {
          "internalType": "uint32",
          "name": "startTimestamp",
          "type": "uint32"
        },
        {
          "internalType": "uint32",
          "name": "endTimestamp",
          "type": "uint32"
        },
        {
          "internalType": "uint192",
          "name": "amount",
          "type": "uint192"
        }
      ],
      "name": "deployIrrevocableVesting",
      "outputs": [
        {
          "internalType": "address",
          "name": "irrevocableVesting",
          "type": "address"
        }
      ],
      "stateMutability": "nonpayable",
      "type": "function"
    },
    {
      "inputs": [],
      "name": "irrevocableVestingImplementation",
      "outputs": [
        {
          "internalType": "address",
          "name": "",
          "type": "address"
        }
      ],
      "stateMutability": "view",
      "type": "function"
    },
    {
      "inputs": [
        {
          "internalType": "address",
          "name": "beneficiary",
          "type": "address"
        },
        {
          "internalType": "uint32",
          "name": "startTimestamp",
          "type": "uint32"
        },
        {
          "internalType": "uint32",
          "name": "endTimestamp",
          "type": "uint32"
        },
        {
          "internalType": "uint192",
          "name": "amount",
          "type": "uint192"
        }
      ],
      "name": "predictIrrevocableVesting",
      "outputs": [
        {
          "internalType": "address",
          "name": "irrevocableVesting",
          "type": "address"
        }
      ],
      "stateMutability": "view",
      "type": "function"
    }
  ],
  "transactionHash": "0x6d12c4bcf173c879d5ccd76fd9dee3d0dd14852d344d82fe0db8bab8659ca1db",
  "args": [
    "0x0b38210ea11411557c13457D4dA7dC6ea731B88a"
  ],
  "numDeployments": 1,
  "solcInputHash": "124e6d9136e32d944e58f6fcf4fd6111",
  "bytecode": "0x60c060405234801561001057600080fd5b5060405161125838038061125883398101604081905261002f916100f0565b6001600160a01b0381166100895760405162461bcd60e51b815260206004820152601660248201527f41706933546f6b656e2061646472657373207a65726f00000000000000000000604482015260640160405180910390fd5b6001600160a01b03811660805260405181906100a4906100e3565b6001600160a01b039091168152602001604051809103906000f0801580156100d0573d6000803e3d6000fd5b506001600160a01b031660a05250610120565b610afa8061075e83390190565b60006020828403121561010257600080fd5b81516001600160a01b038116811461011957600080fd5b9392505050565b60805160a05161060661015860003960008181605601528181610153015261020c0152600081816099015261029a01526106066000f3fe608060405234801561001057600080fd5b506004361061004c5760003560e01c80632d9c2fa914610051578063613d517d14610094578063847dbfc6146100bb578063cc72f8f1146100ce575b600080fd5b6100787f000000000000000000000000000000000000000000000000000000000000000081565b6040516001600160a01b03909116815260200160405180910390f35b6100787f000000000000000000000000000000000000000000000000000000000000000081565b6100786100c9366004610537565b6100e1565b6100786100dc366004610537565b61019a565b60408051606086901b6bffffffffffffffffffffffff1916602082015260e085811b7fffffffff0000000000000000000000000000000000000000000000000000000090811660348401529085901b1660388201529082901b67ffffffffffffffff1916603c820152600090610191907f00000000000000000000000000000000000000000000000000000000000000009060540160405160208183030381529060405280519060200120610404565b95945050505050565b60408051606086901b6bffffffffffffffffffffffff1916602082015260e085811b7fffffffff0000000000000000000000000000000000000000000000000000000090811660348401529085901b1660388201529082901b67ffffffffffffffff1916603c82015260009061024a907f00000000000000000000000000000000000000000000000000000000000000009060540160405160208183030381529060405280519060200120610463565b6040517f23b872dd0000000000000000000000000000000000000000000000000000000081523360048201526001600160a01b0380831660248301526001600160c01b03851660448301529192507f0000000000000000000000000000000000000000000000000000000000000000909116906323b872dd906064016020604051808303816000875af11580156102e5573d6000803e3d6000fd5b505050506040513d601f19601f8201168201806040525081019061030991906105a7565b506040517f3630112a0000000000000000000000000000000000000000000000000000000081526001600160a01b03868116600483015263ffffffff8087166024840152851660448301526001600160c01b0384166064830152821690633630112a90608401600060405180830381600087803b15801561038957600080fd5b505af115801561039d573d6000803e3d6000fd5b50506040805163ffffffff8881168252871660208201526001600160c01b0386168183015290516001600160a01b03891693507f880d585f4d20e0511ae522d17f588cc5649bfe81b1120545eba6383c29046e1392509081900360600190a2949350505050565b6040513060388201526f5af43d82803e903d91602b57fd5bf3ff602482015260148101839052733d602d80600a3d3981f3363d3d373d3d3d363d738152605881018290526037600c820120607882015260556043909101205b92915050565b6000763d602d80600a3d3981f3363d3d373d3d3d363d730000008360601b60e81c176000526e5af43d82803e903d91602b57fd5bf38360781b1760205281603760096000f590506001600160a01b03811661045d576040517f08c379a000000000000000000000000000000000000000000000000000000000815260206004820152601760248201527f455243313136373a2063726561746532206661696c6564000000000000000000604482015260640160405180910390fd5b803563ffffffff8116811461053257600080fd5b919050565b6000806000806080858703121561054d57600080fd5b84356001600160a01b038116811461056457600080fd5b93506105726020860161051e565b92506105806040860161051e565b915060608501356001600160c01b038116811461059c57600080fd5b939692955090935050565b6000602082840312156105b957600080fd5b815180151581146105c957600080fd5b939250505056fea2646970667358221220a6289ee443a5593970c8f9274e2a485c17481833d927f65438b95e2f1ac62bb864736f6c6343000811003360a060405234801561001057600080fd5b50604051610afa380380610afa83398101604081905261002f916100af565b6001600160a01b0381166100895760405162461bcd60e51b815260206004820152601660248201527f41706933546f6b656e2061646472657373207a65726f00000000000000000000604482015260640160405180910390fd5b6001600160a01b03908116608052600080546001600160a01b03191690911790556100df565b6000602082840312156100c157600080fd5b81516001600160a01b03811681146100d857600080fd5b9392505050565b6080516109eb61010f60003960008181610121015281816103a201528181610639015261079d01526109eb6000f3fe608060405234801561001057600080fd5b50600436106100725760003560e01c8063613d517d11610050578063613d517d1461011c578063d950975a14610143578063e13b0f741461015957600080fd5b80633630112a1461007757806338af3eed1461008c57806344c63eec146100bc575b600080fd5b61008a610085366004610864565b610161565b005b60005461009f906001600160a01b031681565b6040516001600160a01b0390911681526020015b60405180910390f35b6001546100f09063ffffffff808216916401000000008104909116906801000000000000000090046001600160c01b031683565b6040805163ffffffff94851681529390921660208401526001600160c01b0316908201526060016100b3565b61009f7f000000000000000000000000000000000000000000000000000000000000000081565b61014b610506565b6040519081526020016100b3565b61008a6105c7565b6000546001600160a01b0316156101bf5760405162461bcd60e51b815260206004820152601360248201527f416c726561647920696e697469616c697a65640000000000000000000000000060448201526064015b60405180910390fd5b6001600160a01b0384166102155760405162461bcd60e51b815260206004820152601860248201527f42656e65666963696172792061646472657373207a65726f000000000000000060448201526064016101b6565b8263ffffffff1660000361026b5760405162461bcd60e51b815260206004820152601460248201527f53746172742074696d657374616d70207a65726f00000000000000000000000060448201526064016101b6565b8263ffffffff168263ffffffff16116102c65760405162461bcd60e51b815260206004820152601860248201527f456e64206e6f74206c61746572207468616e207374617274000000000000000060448201526064016101b6565b6102d46309660180426108ea565b8263ffffffff1611156103295760405162461bcd60e51b815260206004820152601c60248201527f456e6420697320746f6f2066617220696e20746865206675747572650000000060448201526064016101b6565b806001600160c01b03166000036103825760405162461bcd60e51b815260206004820152600b60248201527f416d6f756e74207a65726f00000000000000000000000000000000000000000060448201526064016101b6565b6040516370a0823160e01b81523060048201526001600160c01b038216907f00000000000000000000000000000000000000000000000000000000000000006001600160a01b0316906370a0823190602401602060405180830381865afa1580156103f1573d6000803e3d6000fd5b505050506040513d601f19601f820116820180604052508101906104159190610903565b146104625760405162461bcd60e51b815260206004820152601d60248201527f42616c616e6365206973206e6f742076657374696e6720616d6f756e7400000060448201526064016101b6565b600080547fffffffffffffffffffffffff0000000000000000000000000000000000000000166001600160a01b0395909516949094179093556040805160608101825263ffffffff93841680825292909316602084018190526001600160c01b0390941692018290526001805467ffffffffffffffff19169091176401000000009093029290921767ffffffffffffffff1668010000000000000000909102179055565b60015460009063ffffffff808216916401000000008104909116906801000000000000000090046001600160c01b031642831061054d576001600160c01b03169392505050565b8163ffffffff164210610564576000935050505090565b600061057663ffffffff85164261091c565b90506000610584858561092f565b63ffffffff169050806105a0836001600160c01b038616610953565b6105aa919061096a565b6105bd906001600160c01b03851661091c565b9550505050505090565b6000546001600160a01b031633146106215760405162461bcd60e51b815260206004820152601660248201527f53656e646572206e6f742062656e65666963696172790000000000000000000060448201526064016101b6565b6040516370a0823160e01b81523060048201526000907f00000000000000000000000000000000000000000000000000000000000000006001600160a01b0316906370a0823190602401602060405180830381865afa158015610688573d6000803e3d6000fd5b505050506040513d601f19601f820116820180604052508101906106ac9190610903565b9050806000036106fe5760405162461bcd60e51b815260206004820152600c60248201527f42616c616e6365207a65726f000000000000000000000000000000000000000060448201526064016101b6565b6000610708610506565b90508082116107595760405162461bcd60e51b815260206004820181905260248201527f546f6b656e7320696e2062616c616e6365206e6f74207665737465642079657460448201526064016101b6565b6000610765828461091c565b6040517fa9059cbb000000000000000000000000000000000000000000000000000000008152336004820152602481018290529091507f00000000000000000000000000000000000000000000000000000000000000006001600160a01b03169063a9059cbb906044016020604051808303816000875af11580156107ee573d6000803e3d6000fd5b505050506040513d601f19601f82011682018060405250810190610812919061098c565b506040518181527fee57bdaf2480573432b9ff9ca4adb3a104d5e016f87db391ab72bea5acc843829060200160405180910390a1505050565b803563ffffffff8116811461085f57600080fd5b919050565b6000806000806080858703121561087a57600080fd5b84356001600160a01b038116811461089157600080fd5b935061089f6020860161084b565b92506108ad6040860161084b565b915060608501356001600160c01b03811681146108c957600080fd5b939692955090935050565b634e487b7160e01b600052601160045260246000fd5b808201808211156108fd576108fd6108d4565b92915050565b60006020828403121561091557600080fd5b5051919050565b818103818111156108fd576108fd6108d4565b63ffffffff82811682821603908082111561094c5761094c6108d4565b5092915050565b80820281158282048414176108fd576108fd6108d4565b60008261098757634e487b7160e01b600052601260045260246000fd5b500490565b60006020828403121561099e57600080fd5b815180151581146109ae57600080fd5b939250505056fea26469706673582212201e0293d6d41893cd6bc28c4d4c564cd659e17315ba7a4615afa497acedc570bb64736f6c63430008110033",
  "devdoc": {
    "kind": "dev",
    "methods": {
      "constructor": {
        "params": {
          "api3Token_": "Api3Token address"
        }
      },
      "deployIrrevocableVesting(address,uint32,uint32,uint192)": {
        "details": "The sender needs to approve `amount` API3 tokens to this contract before calling this function",
        "params": {
          "amount": "Amount of tokens to be vested over the period",
          "beneficiary": "Beneficiary of the vesting",
          "endTimestamp": "Ending timestamp of the vesting",
          "startTimestamp": "Starting timestamp of the vesting"
        },
        "returns": {
          "irrevocableVesting": "IrrevocableVesting clone address"
        }
      },
      "predictIrrevocableVesting(address,uint32,uint32,uint192)": {
        "params": {
          "amount": "Amount of tokens to be vested over the period",
          "beneficiary": "Beneficiary of the vesting",
          "endTimestamp": "Ending timestamp of the vesting",
          "startTimestamp": "Starting timestamp of the vesting"
        },
        "returns": {
          "irrevocableVesting": "IrrevocableVesting clone address"
        }
      }
    },
    "title": "Contract that deploys an IrrevocableVesting implementation and allows it to be cloned to create vestings",
    "version": 1
  },
  "userdoc": {
    "kind": "user",
    "methods": {
      "api3Token()": {
        "notice": "Api3Token address"
      },
      "deployIrrevocableVesting(address,uint32,uint32,uint192)": {
        "notice": "Deploys an IrrevocableVesting clone and transfers the vesting amount to it from the sender"
      },
      "irrevocableVestingImplementation()": {
        "notice": "IrrevocableVesting implementation address"
      },
      "predictIrrevocableVesting(address,uint32,uint32,uint192)": {
        "notice": "Predicts the address of the IrrevocableVesting clone that would be deployed by this contract"
      }
    },
    "version": 1
  },
  "storageLayout": {
    "storage": [],
    "types": null
  }
}